{
  "contractName": "Auction",
  "abi": [
    {
      "constant": true,
      "inputs": [
        {
          "name": "",
          "type": "uint256"
        }
      ],
      "name": "itemIndex",
      "outputs": [
        {
          "name": "",
          "type": "uint256"
        }
      ],
      "payable": false,
      "stateMutability": "view",
      "type": "function"
    },
    {
      "constant": true,
      "inputs": [
        {
          "name": "",
          "type": "uint256"
        }
      ],
      "name": "initialized",
      "outputs": [
        {
          "name": "",
          "type": "bool"
        }
      ],
      "payable": false,
      "stateMutability": "view",
      "type": "function"
    },
    {
      "constant": true,
      "inputs": [
        {
          "name": "",
          "type": "uint256"
        }
      ],
      "name": "items",
      "outputs": [
        {
          "name": "reservePrice",
          "type": "uint256"
        },
        {
          "name": "bids",
          "type": "uint256"
        },
        {
          "name": "highBid",
          "type": "uint256"
        },
        {
          "name": "bidder",
          "type": "address"
        }
      ],
      "payable": false,
      "stateMutability": "view",
      "type": "function"
    },
    {
      "constant": true,
      "inputs": [],
      "name": "admin",
      "outputs": [
        {
          "name": "",
          "type": "address"
        }
      ],
      "payable": false,
      "stateMutability": "view",
      "type": "function"
    },
    {
      "inputs": [],
      "payable": false,
      "stateMutability": "nonpayable",
      "type": "constructor"
    },
    {
      "constant": false,
      "inputs": [
        {
          "name": "_itemNo",
          "type": "uint256"
        },
        {
          "name": "_reservePrice",
          "type": "uint256"
        }
      ],
      "name": "initItem",
      "outputs": [
        {
          "name": "_success",
          "type": "bool"
        }
      ],
      "payable": false,
      "stateMutability": "nonpayable",
      "type": "function"
    },
    {
      "constant": true,
      "inputs": [
        {
          "name": "_itemNo",
          "type": "uint256"
        }
      ],
      "name": "getItemData",
      "outputs": [
        {
          "name": "_reservePrice",
          "type": "uint256"
        },
        {
          "name": "_bids",
          "type": "uint256"
        },
        {
          "name": "_highBid",
          "type": "uint256"
        },
        {
          "name": "_bidder",
          "type": "address"
        }
      ],
      "payable": false,
      "stateMutability": "view",
      "type": "function"
    }
  ],
  "bytecode": "0x608060405234801561001057600080fd5b5033600360006101000a81548173ffffffffffffffffffffffffffffffffffffffff021916908373ffffffffffffffffffffffffffffffffffffffff16021790555061086b806100616000396000f3fe608060405260043610610072576000357c0100000000000000000000000000000000000000000000000000000000900480638bc6976e1461007757806392647eab146101075780639797116014610156578063bfb231d2146101a9578063ef3c897a14610239578063f851a44014610296575b600080fd5b34801561008357600080fd5b506100b06004803603602081101561009a57600080fd5b81019080803590602001909291905050506102ed565b604051808581526020018481526020018381526020018273ffffffffffffffffffffffffffffffffffffffff1673ffffffffffffffffffffffffffffffffffffffff16815260200194505050505060405180910390f35b34801561011357600080fd5b506101406004803603602081101561012a57600080fd5b810190808035906020019092919050505061046f565b6040518082815260200191505060405180910390f35b34801561016257600080fd5b5061018f6004803603602081101561017957600080fd5b8101908080359060200190929190505050610487565b604051808215151515815260200191505060405180910390f35b3480156101b557600080fd5b506101e2600480360360208110156101cc57600080fd5b81019080803590602001909291905050506104a7565b604051808581526020018481526020018381526020018273ffffffffffffffffffffffffffffffffffffffff1673ffffffffffffffffffffffffffffffffffffffff16815260200194505050505060405180910390f35b34801561024557600080fd5b5061027c6004803603604081101561025c57600080fd5b810190808035906020019092919080359060200190929190505050610506565b604051808215151515815260200191505060405180910390f35b3480156102a257600080fd5b506102ab6107da565b604051808273ffffffffffffffffffffffffffffffffffffffff1673ffffffffffffffffffffffffffffffffffffffff16815260200191505060405180910390f35b6000806000806002600086815260200190815260200160002060009054906101000a900460ff161515610388576040517f08c379a00000000000000000000000000000000000000000000000000000000081526004018080602001828103825260148152602001807f4974656d206e6f7420696e697469616c697a656400000000000000000000000081525060200191505060405180910390fd5b6000600160008781526020019081526020016000205490506103a8610800565b6000828154811015156103b757fe5b9060005260206000209060040201608060405190810160405290816000820154815260200160018201548152602001600282015481526020016003820160009054906101000a900473ffffffffffffffffffffffffffffffffffffffff1673ffffffffffffffffffffffffffffffffffffffff1673ffffffffffffffffffffffffffffffffffffffff168152505090508060000151816020015182604001518360600151809050955095509550955050509193509193565b60016020528060005260406000206000915090505481565b60026020528060005260406000206000915054906101000a900460ff1681565b6000818154811015156104b657fe5b90600052602060002090600402016000915090508060000154908060010154908060020154908060030160009054906101000a900473ffffffffffffffffffffffffffffffffffffffff16905084565b6000600360009054906101000a900473ffffffffffffffffffffffffffffffffffffffff1673ffffffffffffffffffffffffffffffffffffffff163373ffffffffffffffffffffffffffffffffffffffff161415156105f3576040517f08c379a00000000000000000000000000000000000000000000000000000000081526004018080602001828103825260248152602001807f4f6e6c79207468652061646d696e206d617920696e697469616c697a6520697481526020017f656d732e0000000000000000000000000000000000000000000000000000000081525060400191505060405180910390fd5b6002600084815260200190815260200160002060009054906101000a900460ff161515156106af576040517f08c379a00000000000000000000000000000000000000000000000000000000081526004018080602001828103825260268152602001807f4974656d20756e646572206974656d206e756d62657220616c7265616479206581526020017f78697374732e000000000000000000000000000000000000000000000000000081525060400191505060405180910390fd5b6106b7610800565b6080604051908101604052808481526020016000815260200160008152602001600073ffffffffffffffffffffffffffffffffffffffff16815250905060016000829080600181540180825580915050906001820390600052602060002090600402016000909192909190915060008201518160000155602082015181600101556040820151816002015560608201518160030160006101000a81548173ffffffffffffffffffffffffffffffffffffffff021916908373ffffffffffffffffffffffffffffffffffffffff160217905550505003600160008681526020019081526020016000208190555060016002600086815260200190815260200160002060006101000a81548160ff021916908315150217905550600191505092915050565b600360009054906101000a900473ffffffffffffffffffffffffffffffffffffffff1681565b608060405190810160405280600081526020016000815260200160008152602001600073ffffffffffffffffffffffffffffffffffffffff168152509056fea165627a7a723058209975ffcf8d614297092b34fc2b94b0b43ba63669706156d6839b14d27a8efe220029",
  "source": "pragma solidity ^0.5.0;\r\n\r\ncontract Auction {\r\n  struct Item {\r\n    uint reservePrice;\r\n    uint bids;\r\n    uint highBid;\r\n    address payable bidder;\r\n  }\r\n\r\n  /* event Bid (\r\n    uint itemNo,\r\n    uint amount,\r\n    address indexed bidder\r\n  ); */\r\n\r\n  Item[] public items;\r\n\r\n  mapping (uint => uint) public itemIndex;\r\n  mapping (uint => bool) public initialized;\r\n\r\n  address payable public admin;\r\n\r\n  constructor () public {\r\n    admin = msg.sender;\r\n  }\r\n\r\n  function initItem (uint _itemNo, uint _reservePrice) public returns (bool _success) {\r\n    require(msg.sender == admin, \"Only the admin may initialize items.\");\r\n    require(!initialized[_itemNo], \"Item under item number already exists.\");\r\n    Item memory _item = Item(_reservePrice, 0, 0, address(0));\r\n    itemIndex[_itemNo] = items.push(_item) - 1;\r\n    initialized[_itemNo] = true;\r\n    return true;\r\n  }\r\n\r\n  function getItemData (uint _itemNo) public view returns (uint _reservePrice, uint _bids, uint _highBid, address _bidder) {\r\n    require(initialized[_itemNo], \"Item not initialized\");\r\n    uint _itemID = itemIndex[_itemNo];\r\n    Item memory _item = items[_itemID];\r\n    return (_item.reservePrice, _item.bids, _item.highBid, _item.bidder);\r\n  }\r\n\r\n  /* function bid (uint _itemNo) public payable {\r\n    uint _itemID = itemIndex[_itemNo];\r\n    require(items[_itemID].initialized, \"Invalid item number.\");\r\n    require(msg.value > items[_itemID].highBid, \"Insufficient bid.\");\r\n    Item memory _item = items[_itemID];\r\n    if (_item.bidder != address(0)) {\r\n      _item.bidder.transfer(_item.highBid);\r\n    }\r\n    items[_itemID].bids++;\r\n    items[_itemID].highBid = msg.value;\r\n    items[_itemID].bidder = msg.sender;\r\n    emit Bid(_itemNo, msg.value, msg.sender);\r\n  } */\r\n\r\n  /* function endAuction() public {\r\n    require(msg.sender == admin);\r\n\r\n  } */\r\n}\r\n",
  "sourcePath": "D:/Vince/Documents/Auction/AuctionSol/contracts/Auction.sol",
  "compiler": {
    "name": "solc",
    "version": "0.5.1+commit.c8a2cb62.Emscripten.clang"
  },
  "schemaVersion": "3.0.10",
  "updatedAt": "2019-06-11T04:46:37.247Z",
  "devdoc": {
    "methods": {}
  },
  "userdoc": {
    "methods": {}
  }
}