{
  "contractName": "Auction",
  "abi": [
    {
      "constant": true,
      "inputs": [
        {
          "name": "",
          "type": "uint256"
        }
      ],
      "name": "itemIndex",
      "outputs": [
        {
          "name": "",
          "type": "uint256"
        }
      ],
      "payable": false,
      "stateMutability": "view",
      "type": "function"
    },
    {
      "constant": true,
      "inputs": [
        {
          "name": "",
          "type": "uint256"
        }
      ],
      "name": "initialized",
      "outputs": [
        {
          "name": "",
          "type": "bool"
        }
      ],
      "payable": false,
      "stateMutability": "view",
      "type": "function"
    },
    {
      "constant": true,
      "inputs": [
        {
          "name": "",
          "type": "uint256"
        }
      ],
      "name": "items",
      "outputs": [
        {
          "name": "reservePrice",
          "type": "uint256"
        },
        {
          "name": "bids",
          "type": "uint256"
        },
        {
          "name": "highBid",
          "type": "uint256"
        },
        {
          "name": "bidder",
          "type": "address"
        },
        {
          "name": "biddable",
          "type": "bool"
        },
        {
          "name": "claimed",
          "type": "bool"
        }
      ],
      "payable": false,
      "stateMutability": "view",
      "type": "function"
    },
    {
      "constant": true,
      "inputs": [],
      "name": "admin",
      "outputs": [
        {
          "name": "",
          "type": "address"
        }
      ],
      "payable": false,
      "stateMutability": "view",
      "type": "function"
    },
    {
      "inputs": [],
      "payable": false,
      "stateMutability": "nonpayable",
      "type": "constructor"
    },
    {
      "anonymous": false,
      "inputs": [
        {
          "indexed": false,
          "name": "itemNo",
          "type": "uint256"
        },
        {
          "indexed": false,
          "name": "amount",
          "type": "uint256"
        },
        {
          "indexed": true,
          "name": "bidder",
          "type": "address"
        }
      ],
      "name": "Bid",
      "type": "event"
    },
    {
      "anonymous": false,
      "inputs": [
        {
          "indexed": false,
          "name": "itemNo",
          "type": "uint256"
        },
        {
          "indexed": false,
          "name": "bids",
          "type": "uint256"
        },
        {
          "indexed": false,
          "name": "highBid",
          "type": "uint256"
        },
        {
          "indexed": true,
          "name": "bidder",
          "type": "address"
        }
      ],
      "name": "Sell",
      "type": "event"
    },
    {
      "anonymous": false,
      "inputs": [
        {
          "indexed": false,
          "name": "itemNo",
          "type": "uint256"
        },
        {
          "indexed": true,
          "name": "bidder",
          "type": "address"
        },
        {
          "indexed": false,
          "name": "fee",
          "type": "uint256"
        }
      ],
      "name": "Claim",
      "type": "event"
    },
    {
      "constant": false,
      "inputs": [
        {
          "name": "_itemNo",
          "type": "uint256"
        },
        {
          "name": "_reservePrice",
          "type": "uint256"
        }
      ],
      "name": "initItem",
      "outputs": [
        {
          "name": "",
          "type": "bool"
        }
      ],
      "payable": false,
      "stateMutability": "nonpayable",
      "type": "function"
    },
    {
      "constant": true,
      "inputs": [
        {
          "name": "_itemNo",
          "type": "uint256"
        }
      ],
      "name": "getItemData",
      "outputs": [
        {
          "name": "",
          "type": "uint256"
        },
        {
          "name": "",
          "type": "uint256"
        },
        {
          "name": "",
          "type": "uint256"
        },
        {
          "name": "",
          "type": "address"
        },
        {
          "name": "",
          "type": "bool"
        }
      ],
      "payable": false,
      "stateMutability": "view",
      "type": "function"
    },
    {
      "constant": false,
      "inputs": [
        {
          "name": "_itemNo",
          "type": "uint256"
        }
      ],
      "name": "bid",
      "outputs": [
        {
          "name": "",
          "type": "bool"
        }
      ],
      "payable": true,
      "stateMutability": "payable",
      "type": "function"
    },
    {
      "constant": false,
      "inputs": [
        {
          "name": "_itemNo",
          "type": "uint256"
        }
      ],
      "name": "endAuction",
      "outputs": [
        {
          "name": "",
          "type": "bool"
        }
      ],
      "payable": false,
      "stateMutability": "nonpayable",
      "type": "function"
    },
    {
      "constant": false,
      "inputs": [
        {
          "name": "_itemNo",
          "type": "uint256"
        }
      ],
      "name": "claimItem",
      "outputs": [
        {
          "name": "",
          "type": "bool"
        }
      ],
      "payable": true,
      "stateMutability": "payable",
      "type": "function"
    }
  ],
  "bytecode": "0x608060405234801561001057600080fd5b5033600360006101000a81548173ffffffffffffffffffffffffffffffffffffffff021916908373ffffffffffffffffffffffffffffffffffffffff16021790555061166a806100616000396000f3fe608060405260043610610093576000357c010000000000000000000000000000000000000000000000000000000090048063454a2ab3146100985780637da393e0146100de5780638bc6976e1461012457806392647eab146101bf578063979711601461020e578063b9a2de3a14610261578063bfb231d2146102b4578063ef3c897a1461035a578063f851a440146103b7575b600080fd5b6100c4600480360360208110156100ae57600080fd5b810190808035906020019092919050505061040e565b604051808215151515815260200191505060405180910390f35b61010a600480360360208110156100f457600080fd5b8101908080359060200190929190505050610871565b604051808215151515815260200191505060405180910390f35b34801561013057600080fd5b5061015d6004803603602081101561014757600080fd5b8101908080359060200190929190505050610c3d565b604051808681526020018581526020018481526020018373ffffffffffffffffffffffffffffffffffffffff1673ffffffffffffffffffffffffffffffffffffffff168152602001821515151581526020019550505050505060405180910390f35b3480156101cb57600080fd5b506101f8600480360360208110156101e257600080fd5b8101908080359060200190929190505050610e00565b6040518082815260200191505060405180910390f35b34801561021a57600080fd5b506102476004803603602081101561023157600080fd5b8101908080359060200190929190505050610e18565b604051808215151515815260200191505060405180910390f35b34801561026d57600080fd5b5061029a6004803603602081101561028457600080fd5b8101908080359060200190929190505050610e38565b604051808215151515815260200191505060405180910390f35b3480156102c057600080fd5b506102ed600480360360208110156102d757600080fd5b81019080803590602001909291905050506111af565b604051808781526020018681526020018581526020018473ffffffffffffffffffffffffffffffffffffffff1673ffffffffffffffffffffffffffffffffffffffff1681526020018315151515815260200182151515158152602001965050505050505060405180910390f35b34801561036657600080fd5b5061039d6004803603604081101561037d57600080fd5b810190808035906020019092919080359060200190929190505050611234565b604051808215151515815260200191505060405180910390f35b3480156103c357600080fd5b506103cc611534565b604051808273ffffffffffffffffffffffffffffffffffffffff1673ffffffffffffffffffffffffffffffffffffffff16815260200191505060405180910390f35b600080600160008481526020019081526020016000205490506002600084815260200190815260200160002060009054906101000a900460ff1615156104bc576040517f08c379a00000000000000000000000000000000000000000000000000000000081526004018080602001828103825260148152602001807f496e76616c6964206974656d206e756d6265722e00000000000000000000000081525060200191505060405180910390fd5b6000818154811015156104cb57fe5b906000526020600020906004020160030160149054906101000a900460ff16151561055e576040517f08c379a00000000000000000000000000000000000000000000000000000000081526004018080602001828103825260178152602001807f4974656d20616c72656164792061756374696f6e65642e00000000000000000081525060200191505060405180910390fd5b60008181548110151561056d57fe5b906000526020600020906004020160020154341115156105f5576040517f08c379a00000000000000000000000000000000000000000000000000000000081526004018080602001828103825260118152602001807f496e73756666696369656e74206269642e00000000000000000000000000000081525060200191505060405180910390fd5b6105fd6115ed565b60008281548110151561060c57fe5b906000526020600020906004020160c060405190810160405290816000820154815260200160018201548152602001600282015481526020016003820160009054906101000a900473ffffffffffffffffffffffffffffffffffffffff1673ffffffffffffffffffffffffffffffffffffffff1673ffffffffffffffffffffffffffffffffffffffff1681526020016003820160149054906101000a900460ff161515151581526020016003820160159054906101000a900460ff1615151515815250509050600073ffffffffffffffffffffffffffffffffffffffff16816060015173ffffffffffffffffffffffffffffffffffffffff1614151561075c57806060015173ffffffffffffffffffffffffffffffffffffffff166108fc82604001519081150290604051600060405180830381858888f1935050505015801561075a573d6000803e3d6000fd5b505b60008281548110151561076b57fe5b9060005260206000209060040201600101600081548092919060010191905055503460008381548110151561079c57fe5b906000526020600020906004020160020181905550336000838154811015156107c157fe5b906000526020600020906004020160030160006101000a81548173ffffffffffffffffffffffffffffffffffffffff021916908373ffffffffffffffffffffffffffffffffffffffff1602179055503373ffffffffffffffffffffffffffffffffffffffff167ffd7cfbd219ff1e7365436fb2930a026fa6704a1e0bb39ad104f0485c8c01124d8534604051808381526020018281526020019250505060405180910390a2600192505050919050565b60006002600083815260200190815260200160002060009054906101000a900460ff161515610908576040517f08c379a00000000000000000000000000000000000000000000000000000000081526004018080602001828103825260148152602001807f496e76616c6964206974656d206e756d6265722e00000000000000000000000081525060200191505060405180910390fd5b6000600160008481526020019081526020016000205490506109286115ed565b60008281548110151561093757fe5b906000526020600020906004020160c060405190810160405290816000820154815260200160018201548152602001600282015481526020016003820160009054906101000a900473ffffffffffffffffffffffffffffffffffffffff1673ffffffffffffffffffffffffffffffffffffffff1673ffffffffffffffffffffffffffffffffffffffff1681526020016003820160149054906101000a900460ff161515151581526020016003820160159054906101000a900460ff1615151515815250509050806060015173ffffffffffffffffffffffffffffffffffffffff163373ffffffffffffffffffffffffffffffffffffffff16141515610aa4576040517f08c379a00000000000000000000000000000000000000000000000000000000081526004018080602001828103825260108152602001807f496e76616c6964206163636f756e742e0000000000000000000000000000000081525060200191505060405180910390fd5b610ab38160400151600561155a565b34141515610b29576040517f08c379a000000000000000000000000000000000000000000000000000000000815260040180806020018281038252600c8152602001807f496e76616c6964206665652e000000000000000000000000000000000000000081525060200191505060405180910390fd5b8060a00151151515610ba3576040517f08c379a00000000000000000000000000000000000000000000000000000000081526004018080602001828103825260158152602001807f4974656d20616c726561647920636c61696d65642e000000000000000000000081525060200191505060405180910390fd5b6001600083815481101515610bb457fe5b906000526020600020906004020160030160156101000a81548160ff0219169083151502179055503373ffffffffffffffffffffffffffffffffffffffff167f3ed1528b0fdc7c5207c1bf935e34a667e13656b9ed165260c522be0bc544f3038534604051808381526020018281526020019250505060405180910390a2600192505050919050565b60008060008060006002600087815260200190815260200160002060009054906101000a900460ff161515610cda576040517f08c379a00000000000000000000000000000000000000000000000000000000081526004018080602001828103825260148152602001807f4974656d206e6f7420696e697469616c697a656400000000000000000000000081525060200191505060405180910390fd5b600060016000888152602001908152602001600020549050610cfa6115ed565b600082815481101515610d0957fe5b906000526020600020906004020160c060405190810160405290816000820154815260200160018201548152602001600282015481526020016003820160009054906101000a900473ffffffffffffffffffffffffffffffffffffffff1673ffffffffffffffffffffffffffffffffffffffff1673ffffffffffffffffffffffffffffffffffffffff1681526020016003820160149054906101000a900460ff161515151581526020016003820160159054906101000a900460ff16151515158152505090508060000151816020015182604001518360600151846080015181915096509650965096509650505091939590929450565b60016020528060005260406000206000915090505481565b60026020528060005260406000206000915054906101000a900460ff1681565b6000600360009054906101000a900473ffffffffffffffffffffffffffffffffffffffff1673ffffffffffffffffffffffffffffffffffffffff163373ffffffffffffffffffffffffffffffffffffffff16141515610eff576040517f08c379a00000000000000000000000000000000000000000000000000000000081526004018080602001828103825260158152602001807f556e617574686f72697a6564206163636f756e742e000000000000000000000081525060200191505060405180910390fd5b6000600160008481526020019081526020016000205490506002600084815260200190815260200160002060009054906101000a900460ff161515610fac576040517f08c379a00000000000000000000000000000000000000000000000000000000081526004018080602001828103825260148152602001807f496e76616c6964206974656d206e756d6265722e00000000000000000000000081525060200191505060405180910390fd5b610fb46115ed565b600082815481101515610fc357fe5b906000526020600020906004020160c060405190810160405290816000820154815260200160018201548152602001600282015481526020016003820160009054906101000a900473ffffffffffffffffffffffffffffffffffffffff1673ffffffffffffffffffffffffffffffffffffffff1673ffffffffffffffffffffffffffffffffffffffff1681526020016003820160149054906101000a900460ff161515151581526020016003820160159054906101000a900460ff161515151581525050905080608001511515611102576040517f08c379a00000000000000000000000000000000000000000000000000000000081526004018080602001828103825260178152602001807f4974656d20616c72656164792061756374696f6e65642e00000000000000000081525060200191505060405180910390fd5b6000808381548110151561111257fe5b906000526020600020906004020160030160146101000a81548160ff021916908315150217905550806060015173ffffffffffffffffffffffffffffffffffffffff167f871dd129b75690808eea5b9370e52866ba91e93417f942effee58cf7ee451cd0858360200151846040015160405180848152602001838152602001828152602001935050505060405180910390a2600192505050919050565b6000818154811015156111be57fe5b90600052602060002090600402016000915090508060000154908060010154908060020154908060030160009054906101000a900473ffffffffffffffffffffffffffffffffffffffff16908060030160149054906101000a900460ff16908060030160159054906101000a900460ff16905086565b6000600360009054906101000a900473ffffffffffffffffffffffffffffffffffffffff1673ffffffffffffffffffffffffffffffffffffffff163373ffffffffffffffffffffffffffffffffffffffff161415156112fb576040517f08c379a00000000000000000000000000000000000000000000000000000000081526004018080602001828103825260148152602001807f556e617574686f72697a6564206163636f756e7400000000000000000000000081525060200191505060405180910390fd5b6002600084815260200190815260200160002060009054906101000a900460ff161515156113b7576040517f08c379a00000000000000000000000000000000000000000000000000000000081526004018080602001828103825260268152602001807f4974656d20756e646572206974656d206e756d62657220616c7265616479206581526020017f78697374732e000000000000000000000000000000000000000000000000000081525060400191505060405180910390fd5b6113bf6115ed565b60c0604051908101604052808481526020016000815260200160008152602001600073ffffffffffffffffffffffffffffffffffffffff16815260200160011515815260200160001515815250905060016000829080600181540180825580915050906001820390600052602060002090600402016000909192909190915060008201518160000155602082015181600101556040820151816002015560608201518160030160006101000a81548173ffffffffffffffffffffffffffffffffffffffff021916908373ffffffffffffffffffffffffffffffffffffffff16021790555060808201518160030160146101000a81548160ff02191690831515021790555060a08201518160030160156101000a81548160ff021916908315150217905550505003600160008681526020019081526020016000208190555060016002600086815260200190815260200160002060006101000a81548160ff021916908315150217905550600191505092915050565b600360009054906101000a900473ffffffffffffffffffffffffffffffffffffffff1681565b600080821115156115d3576040517f08c379a000000000000000000000000000000000000000000000000000000000815260040180806020018281038252601a8152602001807f536166654d6174683a206469766973696f6e206279207a65726f00000000000081525060200191505060405180910390fd5b600082848115156115e057fe5b0490508091505092915050565b60c060405190810160405280600081526020016000815260200160008152602001600073ffffffffffffffffffffffffffffffffffffffff168152602001600015158152602001600015158152509056fea165627a7a72305820ba2a95e4cfaa70b191afaaca9363c0390c98d45d90493b6d6c9127c21b6aeb7b0029",
  "source": "pragma solidity ^0.5.0;\r\nimport \"openzeppelin-solidity/contracts/math/SafeMath.sol\";\r\n\r\ncontract Auction {\r\n  using SafeMath for uint;\r\n\r\n  struct Item {\r\n    uint reservePrice;\r\n    uint bids;\r\n    uint highBid;\r\n    address payable bidder;\r\n    bool biddable;\r\n    bool claimed;\r\n  }\r\n\r\n  event Bid (\r\n    uint itemNo,\r\n    uint amount,\r\n    address indexed bidder\r\n  );\r\n\r\n  event Sell (\r\n    uint itemNo,\r\n    uint bids,\r\n    uint highBid,\r\n    address indexed bidder\r\n  );\r\n\r\n  event Claim (\r\n    uint itemNo,\r\n    address indexed bidder,\r\n    uint fee\r\n  );\r\n\r\n  Item[] public items;\r\n\r\n  mapping (uint => uint) public itemIndex;\r\n  mapping (uint => bool) public initialized;\r\n\r\n  address payable public admin;\r\n\r\n  constructor () public {\r\n    admin = msg.sender;\r\n  }\r\n\r\n  function initItem (uint _itemNo, uint _reservePrice) public returns (bool) {\r\n    require(msg.sender == admin, \"Unauthorized account\");\r\n    require(!initialized[_itemNo], \"Item under item number already exists.\");\r\n    Item memory _item = Item(_reservePrice, 0, 0, address(0), true, false);\r\n    itemIndex[_itemNo] = items.push(_item) - 1;\r\n    initialized[_itemNo] = true;\r\n    return true;\r\n  }\r\n\r\n  function getItemData (uint _itemNo) public view returns (uint, uint, uint, address, bool) {\r\n    require(initialized[_itemNo], \"Item not initialized\");\r\n    uint _itemID = itemIndex[_itemNo];\r\n    Item memory _item = items[_itemID];\r\n    return (_item.reservePrice, _item.bids, _item.highBid, _item.bidder, _item.biddable);\r\n  }\r\n\r\n  function bid (uint _itemNo) public payable returns (bool) {\r\n    uint _itemID = itemIndex[_itemNo];\r\n    require(initialized[_itemNo], \"Invalid item number.\");\r\n    require(items[_itemID].biddable, \"Item already auctioned.\");\r\n    require(msg.value > items[_itemID].highBid, \"Insufficient bid.\");\r\n    Item memory _item = items[_itemID];\r\n    if (_item.bidder != address(0)) {\r\n      _item.bidder.transfer(_item.highBid);\r\n    }\r\n    items[_itemID].bids++;\r\n    items[_itemID].highBid = msg.value;\r\n    items[_itemID].bidder = msg.sender;\r\n    emit Bid(_itemNo, msg.value, msg.sender);\r\n    return true;\r\n  }\r\n\r\n  function endAuction(uint _itemNo) public returns (bool) {\r\n    require(msg.sender == admin, \"Unauthorized account.\");\r\n    uint _itemID = itemIndex[_itemNo];\r\n    require(initialized[_itemNo], \"Invalid item number.\");\r\n    Item memory _item = items[_itemID];\r\n    require(_item.biddable, \"Item already auctioned.\");\r\n    items[_itemID].biddable = false;\r\n    emit Sell(_itemNo, _item.bids, _item.highBid, _item.bidder);\r\n    return true;\r\n  }\r\n\r\n  function claimItem(uint _itemNo) public payable returns (bool) {\r\n    require(initialized[_itemNo], \"Invalid item number.\");\r\n    uint _itemID = itemIndex[_itemNo];\r\n    Item memory _item = items[_itemID];\r\n    require(msg.sender == _item.bidder, \"Invalid account.\");\r\n    require(msg.value == SafeMath.div(_item.highBid, 5), \"Invalid fee.\");\r\n    require(!_item.claimed, \"Item already claimed.\");\r\n    items[_itemID].claimed = true;\r\n    emit Claim(_itemNo, msg.sender, msg.value);\r\n    return true;\r\n  }\r\n}\r\n",
  "sourcePath": "D:/Vince/Documents/Auction/AuctionSol/contracts/Auction.sol",
  "compiler": {
    "name": "solc",
    "version": "0.5.1+commit.c8a2cb62.Emscripten.clang"
  },
  "schemaVersion": "3.0.10",
  "updatedAt": "2019-06-15T23:05:38.085Z",
  "devdoc": {
    "methods": {}
  },
  "userdoc": {
    "methods": {}
  }
}