{
  "contractName": "Auction",
  "abi": [
    {
      "constant": true,
      "inputs": [
        {
          "name": "",
          "type": "uint256"
        }
      ],
      "name": "itemIndex",
      "outputs": [
        {
          "name": "",
          "type": "uint256"
        }
      ],
      "payable": false,
      "stateMutability": "view",
      "type": "function"
    },
    {
      "constant": true,
      "inputs": [
        {
          "name": "",
          "type": "uint256"
        }
      ],
      "name": "initialized",
      "outputs": [
        {
          "name": "",
          "type": "bool"
        }
      ],
      "payable": false,
      "stateMutability": "view",
      "type": "function"
    },
    {
      "constant": true,
      "inputs": [
        {
          "name": "",
          "type": "uint256"
        }
      ],
      "name": "items",
      "outputs": [
        {
          "name": "reservePrice",
          "type": "uint256"
        },
        {
          "name": "bids",
          "type": "uint256"
        },
        {
          "name": "highBid",
          "type": "uint256"
        },
        {
          "name": "bidder",
          "type": "address"
        },
        {
          "name": "biddable",
          "type": "bool"
        },
        {
          "name": "claimable",
          "type": "bool"
        }
      ],
      "payable": false,
      "stateMutability": "view",
      "type": "function"
    },
    {
      "constant": true,
      "inputs": [],
      "name": "admin",
      "outputs": [
        {
          "name": "",
          "type": "address"
        }
      ],
      "payable": false,
      "stateMutability": "view",
      "type": "function"
    },
    {
      "inputs": [],
      "payable": false,
      "stateMutability": "nonpayable",
      "type": "constructor"
    },
    {
      "anonymous": false,
      "inputs": [
        {
          "indexed": false,
          "name": "itemNo",
          "type": "uint256"
        }
      ],
      "name": "NewItem",
      "type": "event"
    },
    {
      "anonymous": false,
      "inputs": [
        {
          "indexed": false,
          "name": "itemNo",
          "type": "uint256"
        },
        {
          "indexed": false,
          "name": "amount",
          "type": "uint256"
        },
        {
          "indexed": true,
          "name": "bidder",
          "type": "address"
        }
      ],
      "name": "Bid",
      "type": "event"
    },
    {
      "anonymous": false,
      "inputs": [
        {
          "indexed": false,
          "name": "itemNo",
          "type": "uint256"
        },
        {
          "indexed": false,
          "name": "bids",
          "type": "uint256"
        },
        {
          "indexed": false,
          "name": "highBid",
          "type": "uint256"
        },
        {
          "indexed": true,
          "name": "bidder",
          "type": "address"
        },
        {
          "indexed": false,
          "name": "claimable",
          "type": "bool"
        }
      ],
      "name": "Sell",
      "type": "event"
    },
    {
      "anonymous": false,
      "inputs": [
        {
          "indexed": false,
          "name": "itemNo",
          "type": "uint256"
        },
        {
          "indexed": true,
          "name": "bidder",
          "type": "address"
        },
        {
          "indexed": false,
          "name": "fee",
          "type": "uint256"
        }
      ],
      "name": "Claim",
      "type": "event"
    },
    {
      "constant": false,
      "inputs": [
        {
          "name": "_itemNo",
          "type": "uint256"
        },
        {
          "name": "_reservePrice",
          "type": "uint256"
        }
      ],
      "name": "initItem",
      "outputs": [
        {
          "name": "",
          "type": "bool"
        }
      ],
      "payable": false,
      "stateMutability": "nonpayable",
      "type": "function"
    },
    {
      "constant": true,
      "inputs": [
        {
          "name": "_itemNo",
          "type": "uint256"
        }
      ],
      "name": "getItemData",
      "outputs": [
        {
          "name": "",
          "type": "uint256"
        },
        {
          "name": "",
          "type": "uint256"
        },
        {
          "name": "",
          "type": "uint256"
        },
        {
          "name": "",
          "type": "address"
        },
        {
          "name": "",
          "type": "bool"
        },
        {
          "name": "",
          "type": "bool"
        }
      ],
      "payable": false,
      "stateMutability": "view",
      "type": "function"
    },
    {
      "constant": true,
      "inputs": [
        {
          "name": "_itemID",
          "type": "uint256"
        }
      ],
      "name": "getItemIDData",
      "outputs": [
        {
          "name": "",
          "type": "uint256"
        },
        {
          "name": "",
          "type": "uint256"
        },
        {
          "name": "",
          "type": "uint256"
        },
        {
          "name": "",
          "type": "uint256"
        },
        {
          "name": "",
          "type": "address"
        },
        {
          "name": "",
          "type": "bool"
        }
      ],
      "payable": false,
      "stateMutability": "view",
      "type": "function"
    },
    {
      "constant": true,
      "inputs": [],
      "name": "getItemCount",
      "outputs": [
        {
          "name": "",
          "type": "int256"
        }
      ],
      "payable": false,
      "stateMutability": "view",
      "type": "function"
    },
    {
      "constant": false,
      "inputs": [
        {
          "name": "_itemNo",
          "type": "uint256"
        }
      ],
      "name": "bid",
      "outputs": [
        {
          "name": "",
          "type": "bool"
        }
      ],
      "payable": true,
      "stateMutability": "payable",
      "type": "function"
    },
    {
      "constant": false,
      "inputs": [
        {
          "name": "_itemNo",
          "type": "uint256"
        }
      ],
      "name": "claimItem",
      "outputs": [
        {
          "name": "",
          "type": "bool"
        }
      ],
      "payable": true,
      "stateMutability": "payable",
      "type": "function"
    }
  ],
  "bytecode": "0x608060405234801561001057600080fd5b5033600360006101000a81548173ffffffffffffffffffffffffffffffffffffffff021916908373ffffffffffffffffffffffffffffffffffffffff1602179055506115cb806100616000396000f3fe60806040526004361061009e576000357c01000000000000000000000000000000000000000000000000000000009004806330c25c02146100a3578063454a2ab3146101455780637749cf231461018b5780637da393e0146101b65780638bc6976e146101fc57806392647eab146102a257806397971160146102f1578063bfb231d214610344578063ef3c897a146103ea578063f851a44014610447575b600080fd5b3480156100af57600080fd5b506100dc600480360360208110156100c657600080fd5b810190808035906020019092919050505061049e565b604051808781526020018681526020018581526020018481526020018373ffffffffffffffffffffffffffffffffffffffff1673ffffffffffffffffffffffffffffffffffffffff16815260200182151515158152602001965050505050505060405180910390f35b6101716004803603602081101561015b57600080fd5b8101908080359060200190929190505050610647565b604051808215151515815260200191505060405180910390f35b34801561019757600080fd5b506101a0610a56565b6040518082815260200191505060405180910390f35b6101e2600480360360208110156101cc57600080fd5b8101908080359060200190929190505050610a62565b604051808215151515815260200191505060405180910390f35b34801561020857600080fd5b506102356004803603602081101561021f57600080fd5b8101908080359060200190929190505050610ddb565b604051808781526020018681526020018581526020018473ffffffffffffffffffffffffffffffffffffffff1673ffffffffffffffffffffffffffffffffffffffff1681526020018315151515815260200182151515158152602001965050505050505060405180910390f35b3480156102ae57600080fd5b506102db600480360360208110156102c557600080fd5b8101908080359060200190929190505050610f83565b6040518082815260200191505060405180910390f35b3480156102fd57600080fd5b5061032a6004803603602081101561031457600080fd5b8101908080359060200190929190505050610fa6565b604051808215151515815260200191505060405180910390f35b34801561035057600080fd5b5061037d6004803603602081101561036757600080fd5b8101908080359060200190929190505050610fc6565b604051808781526020018681526020018581526020018473ffffffffffffffffffffffffffffffffffffffff1673ffffffffffffffffffffffffffffffffffffffff1681526020018315151515815260200182151515158152602001965050505050505060405180910390f35b3480156103f657600080fd5b5061042d6004803603604081101561040d57600080fd5b81019080803590602001909291908035906020019092919050505061103c565b604051808215151515815260200191505060405180910390f35b34801561045357600080fd5b5061045c61136c565b604051808273ffffffffffffffffffffffffffffffffffffffff1673ffffffffffffffffffffffffffffffffffffffff16815260200191505060405180910390f35b60008060008060008060008054905087101515610523576040517f08c379a000000000000000000000000000000000000000000000000000000000815260040180806020018281038252600e8152602001807f4974656d206e6f7420666f756e6400000000000000000000000000000000000081525060200191505060405180910390fd5b6000808881548110151561053357fe5b906000526020600020015490506105486114fd565b6001600083815260200190815260200160002060c060405190810160405290816000820154815260200160018201548152602001600282015481526020016003820160009054906101000a900473ffffffffffffffffffffffffffffffffffffffff1673ffffffffffffffffffffffffffffffffffffffff1673ffffffffffffffffffffffffffffffffffffffff1681526020016003820160149054906101000a900460ff161515151581526020016003820160159054906101000a900460ff16151515158152505090508181600001518260200151836040015184606001518560800151819150975097509750975097509750505091939550919395565b60006002600083815260200190815260200160002060009054906101000a900460ff1615156106de576040517f08c379a00000000000000000000000000000000000000000000000000000000081526004018080602001828103825260148152602001807f496e76616c6964206974656d206e756d6265722e00000000000000000000000081525060200191505060405180910390fd5b6001600083815260200190815260200160002060030160149054906101000a900460ff161515610776576040517f08c379a00000000000000000000000000000000000000000000000000000000081526004018080602001828103825260178152602001807f4974656d20616c72656164792061756374696f6e65642e00000000000000000081525060200191505060405180910390fd5b600160008381526020019081526020016000206002015434111515610803576040517f08c379a00000000000000000000000000000000000000000000000000000000081526004018080602001828103825260118152602001807f496e73756666696369656e74206269642e00000000000000000000000000000081525060200191505060405180910390fd5b61080b6114fd565b6001600084815260200190815260200160002060c060405190810160405290816000820154815260200160018201548152602001600282015481526020016003820160009054906101000a900473ffffffffffffffffffffffffffffffffffffffff1673ffffffffffffffffffffffffffffffffffffffff1673ffffffffffffffffffffffffffffffffffffffff1681526020016003820160149054906101000a900460ff161515151581526020016003820160159054906101000a900460ff1615151515815250509050600073ffffffffffffffffffffffffffffffffffffffff16816060015173ffffffffffffffffffffffffffffffffffffffff1614151561096057806060015173ffffffffffffffffffffffffffffffffffffffff166108fc82604001519081150290604051600060405180830381858888f1935050505015801561095e573d6000803e3d6000fd5b505b6001600084815260200190815260200160002060010160008154809291906001019190505550346001600085815260200190815260200160002060020181905550336001600085815260200190815260200160002060030160006101000a81548173ffffffffffffffffffffffffffffffffffffffff021916908373ffffffffffffffffffffffffffffffffffffffff1602179055503373ffffffffffffffffffffffffffffffffffffffff167ffd7cfbd219ff1e7365436fb2930a026fa6704a1e0bb39ad104f0485c8c01124d8434604051808381526020018281526020019250505060405180910390a26001915050919050565b60008080549050905090565b60006002600083815260200190815260200160002060009054906101000a900460ff161515610af9576040517f08c379a00000000000000000000000000000000000000000000000000000000081526004018080602001828103825260148152602001807f496e76616c6964206974656d206e756d6265722e00000000000000000000000081525060200191505060405180910390fd5b610b016114fd565b6001600084815260200190815260200160002060c060405190810160405290816000820154815260200160018201548152602001600282015481526020016003820160009054906101000a900473ffffffffffffffffffffffffffffffffffffffff1673ffffffffffffffffffffffffffffffffffffffff1673ffffffffffffffffffffffffffffffffffffffff1681526020016003820160149054906101000a900460ff161515151581526020016003820160159054906101000a900460ff16151515158152505090508060a001511515610c45576040517f08c379a00000000000000000000000000000000000000000000000000000000081526004018080602001828103825260138152602001807f4974656d206e6f7420636c61696d61626c652e0000000000000000000000000081525060200191505060405180910390fd5b806060015173ffffffffffffffffffffffffffffffffffffffff163373ffffffffffffffffffffffffffffffffffffffff16141515610cec576040517f08c379a00000000000000000000000000000000000000000000000000000000081526004018080602001828103825260108152602001807f496e76616c6964206163636f756e742e0000000000000000000000000000000081525060200191505060405180910390fd5b610cfb81604001516005611392565b34141515610d71576040517f08c379a000000000000000000000000000000000000000000000000000000000815260040180806020018281038252600c8152602001807f496e76616c6964206665652e000000000000000000000000000000000000000081525060200191505060405180910390fd5b3373ffffffffffffffffffffffffffffffffffffffff167f3ed1528b0fdc7c5207c1bf935e34a667e13656b9ed165260c522be0bc544f3038434604051808381526020018281526020019250505060405180910390a2610dd083611425565b506001915050919050565b6000806000806000806002600088815260200190815260200160002060009054906101000a900460ff161515610e79576040517f08c379a00000000000000000000000000000000000000000000000000000000081526004018080602001828103825260148152602001807f4974656d206e6f7420696e697469616c697a656400000000000000000000000081525060200191505060405180910390fd5b610e816114fd565b6001600089815260200190815260200160002060c060405190810160405290816000820154815260200160018201548152602001600282015481526020016003820160009054906101000a900473ffffffffffffffffffffffffffffffffffffffff1673ffffffffffffffffffffffffffffffffffffffff1673ffffffffffffffffffffffffffffffffffffffff1681526020016003820160149054906101000a900460ff161515151581526020016003820160159054906101000a900460ff1615151515815250509050806000015181602001518260400151836060015184608001518560a001518292509650965096509650965096505091939550919395565b600081815481101515610f9257fe5b906000526020600020016000915090505481565b60026020528060005260406000206000915054906101000a900460ff1681565b60016020528060005260406000206000915090508060000154908060010154908060020154908060030160009054906101000a900473ffffffffffffffffffffffffffffffffffffffff16908060030160149054906101000a900460ff16908060030160159054906101000a900460ff16905086565b6000600360009054906101000a900473ffffffffffffffffffffffffffffffffffffffff1673ffffffffffffffffffffffffffffffffffffffff163373ffffffffffffffffffffffffffffffffffffffff16141515611103576040517f08c379a00000000000000000000000000000000000000000000000000000000081526004018080602001828103825260148152602001807f556e617574686f72697a6564206163636f756e7400000000000000000000000081525060200191505060405180910390fd5b6002600084815260200190815260200160002060009054906101000a900460ff161515156111bf576040517f08c379a00000000000000000000000000000000000000000000000000000000081526004018080602001828103825260268152602001807f4974656d20756e646572206974656d206e756d62657220616c7265616479206581526020017f78697374732e000000000000000000000000000000000000000000000000000081525060400191505060405180910390fd5b6111c76114fd565b60c0604051908101604052808481526020016000815260200160008152602001600073ffffffffffffffffffffffffffffffffffffffff168152602001600115158152602001600015158152509050806001600086815260200190815260200160002060008201518160000155602082015181600101556040820151816002015560608201518160030160006101000a81548173ffffffffffffffffffffffffffffffffffffffff021916908373ffffffffffffffffffffffffffffffffffffffff16021790555060808201518160030160146101000a81548160ff02191690831515021790555060a08201518160030160156101000a81548160ff02191690831515021790555090505060016002600086815260200190815260200160002060006101000a81548160ff02191690831515021790555060008490806001815401808255809150509060018203906000526020600020016000909192909190915055507f50bfe36855967d446b8ea65825360cacc53d0ec60543567ebfad26a51a2cfc46846040518082815260200191505060405180910390a1600191505092915050565b600360009054906101000a900473ffffffffffffffffffffffffffffffffffffffff1681565b6000808211151561140b576040517f08c379a000000000000000000000000000000000000000000000000000000000815260040180806020018281038252601a8152602001807f536166654d6174683a206469766973696f6e206279207a65726f00000000000081525060200191505060405180910390fd5b6000828481151561141857fe5b0490508091505092915050565b6000806002600084815260200190815260200160002060006101000a81548160ff02191690831515021790555060008090505b6000805490508110156114f2578260008081548110151561147557fe5b906000526020600020015414156114e557600060016000805490500381548110151561149d57fe5b90600052602060002001546000808154811015156114b757fe5b906000526020600020018190555060008054809190600190036114da919061154e565b5060019150506114f8565b8080600101915050611458565b50600090505b919050565b60c060405190810160405280600081526020016000815260200160008152602001600073ffffffffffffffffffffffffffffffffffffffff1681526020016000151581526020016000151581525090565b81548183558181111561157557818360005260206000209182019101611574919061157a565b5b505050565b61159c91905b80821115611598576000816000905550600101611580565b5090565b9056fea165627a7a7230582079144ab17d97e23bffccce96989951fca1d22b8fd120a48f24aa0d30d3c115b10029",
  "source": "pragma solidity ^0.5.0;\r\nimport \"openzeppelin-solidity/contracts/math/SafeMath.sol\";\r\n\r\ncontract Auction {\r\n  using SafeMath for uint;\r\n\r\n  struct Item {\r\n    uint reservePrice;\r\n    uint bids;\r\n    uint highBid;\r\n    address payable bidder;\r\n    bool biddable;\r\n    bool claimable;\r\n  }\r\n\r\n  event NewItem (\r\n    uint itemNo\r\n  );\r\n\r\n  event Bid (\r\n    uint itemNo,\r\n    uint amount,\r\n    address indexed bidder\r\n  );\r\n\r\n  event Sell (\r\n    uint itemNo,\r\n    uint bids,\r\n    uint highBid,\r\n    address indexed bidder,\r\n    bool claimable\r\n  );\r\n\r\n  event Claim (\r\n    uint itemNo,\r\n    address indexed bidder,\r\n    uint fee\r\n  );\r\n\r\n  uint[] public itemIndex;\r\n\r\n  mapping (uint => Item) public items;\r\n  mapping (uint => bool) public initialized;\r\n\r\n  address payable public admin;\r\n\r\n  constructor () public {\r\n    admin = msg.sender;\r\n  }\r\n\r\n  function initItem (uint _itemNo, uint _reservePrice) public returns (bool) {\r\n    require(msg.sender == admin, \"Unauthorized account\");\r\n    require(!initialized[_itemNo], \"Item under item number already exists.\");\r\n    Item memory _item = Item(_reservePrice, 0, 0, address(0), true, false);\r\n    items[_itemNo] = _item;\r\n    initialized[_itemNo] = true;\r\n    itemIndex.push(_itemNo);\r\n    emit NewItem(_itemNo);\r\n    return true;\r\n  }\r\n\r\n  function getItemData (uint _itemNo) public view returns (uint, uint, uint, address, bool, bool) {\r\n    require(initialized[_itemNo], \"Item not initialized\");\r\n    Item memory _item = items[_itemNo];\r\n    return (_item.reservePrice, _item.bids, _item.highBid, _item.bidder, _item.biddable, _item.claimable);\r\n  }\r\n\r\n  function getItemIDData (uint _itemID) public view returns (uint, uint, uint, uint, address, bool) {\r\n    require(_itemID < itemIndex.length, \"Item not found\");\r\n    uint _itemNo = itemIndex[_itemID];\r\n    Item memory _item = items[_itemNo];\r\n    return (_itemNo, _item.reservePrice, _item.bids, _item.highBid, _item.bidder, _item.biddable);\r\n  }\r\n\r\n  function getItemCount () public view returns (int) {\r\n    return int(itemIndex.length);\r\n  }\r\n\r\n  function bid (uint _itemNo) public payable returns (bool) {\r\n    require(initialized[_itemNo], \"Invalid item number.\");\r\n    require(items[_itemNo].biddable, \"Item already auctioned.\");\r\n    require(msg.value > items[_itemNo].highBid, \"Insufficient bid.\");\r\n    Item memory _item = items[_itemNo];\r\n    if (_item.bidder != address(0)) {\r\n      _item.bidder.transfer(_item.highBid);\r\n    }\r\n    items[_itemNo].bids++;\r\n    items[_itemNo].highBid = msg.value;\r\n    items[_itemNo].bidder = msg.sender;\r\n    emit Bid(_itemNo, msg.value, msg.sender);\r\n    return true;\r\n  }\r\n\r\n  function claimItem(uint _itemNo) public payable returns (bool) {\r\n    require(initialized[_itemNo], \"Invalid item number.\");\r\n    Item memory _item = items[_itemNo];\r\n    require(_item.claimable, \"Item not claimable.\");\r\n    require(msg.sender == _item.bidder, \"Invalid account.\");\r\n    require(msg.value == SafeMath.div(_item.highBid, 5), \"Invalid fee.\");\r\n    emit Claim(_itemNo, msg.sender, msg.value);\r\n    deleteItem(_itemNo);\r\n    return true;\r\n  }\r\n\r\n  function deleteItem(uint _itemNo) internal returns (bool) {\r\n    initialized[_itemNo] = false;\r\n    for (uint i = 0; i < itemIndex.length; i++) {\r\n      if (itemIndex[0] == _itemNo) {\r\n        itemIndex[0] = itemIndex[itemIndex.length - 1];\r\n        itemIndex.length--;\r\n        return true;\r\n      }\r\n    }\r\n\r\n    return false;\r\n  }\r\n}\r\n",
  "sourcePath": "D:/Vince/Documents/GitHub/auction-sol/contracts/Auction.sol",
  "compiler": {
    "name": "solc",
    "version": "0.5.1+commit.c8a2cb62.Emscripten.clang"
  },
  "schemaVersion": "3.0.10",
  "updatedAt": "2019-07-15T14:33:17.021Z",
  "devdoc": {
    "methods": {}
  },
  "userdoc": {
    "methods": {}
  }
}