{
  "contractName": "EnglishAuction",
  "abi": [
    {
      "constant": true,
      "inputs": [
        {
          "name": "_itemID",
          "type": "uint256"
        }
      ],
      "name": "getItemIDData",
      "outputs": [
        {
          "name": "",
          "type": "uint256"
        },
        {
          "name": "",
          "type": "uint256"
        },
        {
          "name": "",
          "type": "uint256"
        },
        {
          "name": "",
          "type": "uint256"
        },
        {
          "name": "",
          "type": "address"
        },
        {
          "name": "",
          "type": "bool"
        }
      ],
      "payable": false,
      "stateMutability": "view",
      "type": "function"
    },
    {
      "constant": false,
      "inputs": [
        {
          "name": "_itemNo",
          "type": "uint256"
        }
      ],
      "name": "bid",
      "outputs": [
        {
          "name": "",
          "type": "bool"
        }
      ],
      "payable": true,
      "stateMutability": "payable",
      "type": "function"
    },
    {
      "constant": true,
      "inputs": [],
      "name": "getItemCount",
      "outputs": [
        {
          "name": "",
          "type": "int256"
        }
      ],
      "payable": false,
      "stateMutability": "view",
      "type": "function"
    },
    {
      "constant": false,
      "inputs": [
        {
          "name": "_itemNo",
          "type": "uint256"
        }
      ],
      "name": "claimItem",
      "outputs": [
        {
          "name": "",
          "type": "bool"
        }
      ],
      "payable": true,
      "stateMutability": "payable",
      "type": "function"
    },
    {
      "constant": true,
      "inputs": [
        {
          "name": "_itemNo",
          "type": "uint256"
        }
      ],
      "name": "getItemData",
      "outputs": [
        {
          "name": "",
          "type": "uint256"
        },
        {
          "name": "",
          "type": "uint256"
        },
        {
          "name": "",
          "type": "uint256"
        },
        {
          "name": "",
          "type": "address"
        },
        {
          "name": "",
          "type": "bool"
        },
        {
          "name": "",
          "type": "bool"
        }
      ],
      "payable": false,
      "stateMutability": "view",
      "type": "function"
    },
    {
      "constant": true,
      "inputs": [
        {
          "name": "",
          "type": "uint256"
        }
      ],
      "name": "itemIndex",
      "outputs": [
        {
          "name": "",
          "type": "uint256"
        }
      ],
      "payable": false,
      "stateMutability": "view",
      "type": "function"
    },
    {
      "constant": true,
      "inputs": [
        {
          "name": "",
          "type": "uint256"
        }
      ],
      "name": "initialized",
      "outputs": [
        {
          "name": "",
          "type": "bool"
        }
      ],
      "payable": false,
      "stateMutability": "view",
      "type": "function"
    },
    {
      "constant": true,
      "inputs": [
        {
          "name": "",
          "type": "uint256"
        }
      ],
      "name": "items",
      "outputs": [
        {
          "name": "reservePrice",
          "type": "uint256"
        },
        {
          "name": "bids",
          "type": "uint256"
        },
        {
          "name": "highBid",
          "type": "uint256"
        },
        {
          "name": "bidder",
          "type": "address"
        },
        {
          "name": "biddable",
          "type": "bool"
        },
        {
          "name": "claimable",
          "type": "bool"
        }
      ],
      "payable": false,
      "stateMutability": "view",
      "type": "function"
    },
    {
      "constant": false,
      "inputs": [
        {
          "name": "_itemNo",
          "type": "uint256"
        },
        {
          "name": "_reservePrice",
          "type": "uint256"
        }
      ],
      "name": "initItem",
      "outputs": [
        {
          "name": "",
          "type": "bool"
        }
      ],
      "payable": false,
      "stateMutability": "nonpayable",
      "type": "function"
    },
    {
      "constant": true,
      "inputs": [],
      "name": "admin",
      "outputs": [
        {
          "name": "",
          "type": "address"
        }
      ],
      "payable": false,
      "stateMutability": "view",
      "type": "function"
    },
    {
      "anonymous": false,
      "inputs": [
        {
          "indexed": false,
          "name": "itemNo",
          "type": "uint256"
        }
      ],
      "name": "NewItem",
      "type": "event"
    },
    {
      "anonymous": false,
      "inputs": [
        {
          "indexed": false,
          "name": "itemNo",
          "type": "uint256"
        },
        {
          "indexed": false,
          "name": "amount",
          "type": "uint256"
        },
        {
          "indexed": true,
          "name": "bidder",
          "type": "address"
        }
      ],
      "name": "Bid",
      "type": "event"
    },
    {
      "anonymous": false,
      "inputs": [
        {
          "indexed": false,
          "name": "itemNo",
          "type": "uint256"
        },
        {
          "indexed": false,
          "name": "bids",
          "type": "uint256"
        },
        {
          "indexed": false,
          "name": "highBid",
          "type": "uint256"
        },
        {
          "indexed": true,
          "name": "bidder",
          "type": "address"
        },
        {
          "indexed": false,
          "name": "claimable",
          "type": "bool"
        }
      ],
      "name": "Sell",
      "type": "event"
    },
    {
      "anonymous": false,
      "inputs": [
        {
          "indexed": false,
          "name": "itemNo",
          "type": "uint256"
        },
        {
          "indexed": true,
          "name": "bidder",
          "type": "address"
        },
        {
          "indexed": false,
          "name": "fee",
          "type": "uint256"
        }
      ],
      "name": "Claim",
      "type": "event"
    },
    {
      "constant": false,
      "inputs": [
        {
          "name": "_itemNo",
          "type": "uint256"
        }
      ],
      "name": "endAuction",
      "outputs": [
        {
          "name": "",
          "type": "bool"
        }
      ],
      "payable": false,
      "stateMutability": "nonpayable",
      "type": "function"
    }
  ],
  "bytecode": "0x608060405233600360006101000a81548173ffffffffffffffffffffffffffffffffffffffff021916908373ffffffffffffffffffffffffffffffffffffffff160217905550611a96806100546000396000f3fe6080604052600436106100a9576000357c01000000000000000000000000000000000000000000000000000000009004806330c25c02146100ae578063454a2ab3146101505780637749cf23146101965780637da393e0146101c15780638bc6976e1461020757806392647eab146102ad57806397971160146102fc578063b9a2de3a1461034f578063bfb231d2146103a2578063ef3c897a14610448578063f851a440146104a5575b600080fd5b3480156100ba57600080fd5b506100e7600480360360208110156100d157600080fd5b81019080803590602001909291905050506104fc565b604051808781526020018681526020018581526020018481526020018373ffffffffffffffffffffffffffffffffffffffff1673ffffffffffffffffffffffffffffffffffffffff16815260200182151515158152602001965050505050505060405180910390f35b61017c6004803603602081101561016657600080fd5b81019080803590602001909291905050506106a5565b604051808215151515815260200191505060405180910390f35b3480156101a257600080fd5b506101ab610ab4565b6040518082815260200191505060405180910390f35b6101ed600480360360208110156101d757600080fd5b8101908080359060200190929190505050610ac0565b604051808215151515815260200191505060405180910390f35b34801561021357600080fd5b506102406004803603602081101561022a57600080fd5b8101908080359060200190929190505050610e39565b604051808781526020018681526020018581526020018473ffffffffffffffffffffffffffffffffffffffff1673ffffffffffffffffffffffffffffffffffffffff1681526020018315151515815260200182151515158152602001965050505050505060405180910390f35b3480156102b957600080fd5b506102e6600480360360208110156102d057600080fd5b8101908080359060200190929190505050610fe1565b6040518082815260200191505060405180910390f35b34801561030857600080fd5b506103356004803603602081101561031f57600080fd5b8101908080359060200190929190505050611004565b604051808215151515815260200191505060405180910390f35b34801561035b57600080fd5b506103886004803603602081101561037257600080fd5b8101908080359060200190929190505050611024565b604051808215151515815260200191505060405180910390f35b3480156103ae57600080fd5b506103db600480360360208110156103c557600080fd5b8101908080359060200190929190505050611491565b604051808781526020018681526020018581526020018473ffffffffffffffffffffffffffffffffffffffff1673ffffffffffffffffffffffffffffffffffffffff1681526020018315151515815260200182151515158152602001965050505050505060405180910390f35b34801561045457600080fd5b5061048b6004803603604081101561046b57600080fd5b810190808035906020019092919080359060200190929190505050611507565b604051808215151515815260200191505060405180910390f35b3480156104b157600080fd5b506104ba611837565b604051808273ffffffffffffffffffffffffffffffffffffffff1673ffffffffffffffffffffffffffffffffffffffff16815260200191505060405180910390f35b60008060008060008060008054905087101515610581576040517f08c379a000000000000000000000000000000000000000000000000000000000815260040180806020018281038252600e8152602001807f4974656d206e6f7420666f756e6400000000000000000000000000000000000081525060200191505060405180910390fd5b6000808881548110151561059157fe5b906000526020600020015490506105a66119c8565b6001600083815260200190815260200160002060c060405190810160405290816000820154815260200160018201548152602001600282015481526020016003820160009054906101000a900473ffffffffffffffffffffffffffffffffffffffff1673ffffffffffffffffffffffffffffffffffffffff1673ffffffffffffffffffffffffffffffffffffffff1681526020016003820160149054906101000a900460ff161515151581526020016003820160159054906101000a900460ff16151515158152505090508181600001518260200151836040015184606001518560800151819150975097509750975097509750505091939550919395565b60006002600083815260200190815260200160002060009054906101000a900460ff16151561073c576040517f08c379a00000000000000000000000000000000000000000000000000000000081526004018080602001828103825260148152602001807f496e76616c6964206974656d206e756d6265722e00000000000000000000000081525060200191505060405180910390fd5b6001600083815260200190815260200160002060030160149054906101000a900460ff1615156107d4576040517f08c379a00000000000000000000000000000000000000000000000000000000081526004018080602001828103825260178152602001807f4974656d20616c72656164792061756374696f6e65642e00000000000000000081525060200191505060405180910390fd5b600160008381526020019081526020016000206002015434111515610861576040517f08c379a00000000000000000000000000000000000000000000000000000000081526004018080602001828103825260118152602001807f496e73756666696369656e74206269642e00000000000000000000000000000081525060200191505060405180910390fd5b6108696119c8565b6001600084815260200190815260200160002060c060405190810160405290816000820154815260200160018201548152602001600282015481526020016003820160009054906101000a900473ffffffffffffffffffffffffffffffffffffffff1673ffffffffffffffffffffffffffffffffffffffff1673ffffffffffffffffffffffffffffffffffffffff1681526020016003820160149054906101000a900460ff161515151581526020016003820160159054906101000a900460ff1615151515815250509050600073ffffffffffffffffffffffffffffffffffffffff16816060015173ffffffffffffffffffffffffffffffffffffffff161415156109be57806060015173ffffffffffffffffffffffffffffffffffffffff166108fc82604001519081150290604051600060405180830381858888f193505050501580156109bc573d6000803e3d6000fd5b505b6001600084815260200190815260200160002060010160008154809291906001019190505550346001600085815260200190815260200160002060020181905550336001600085815260200190815260200160002060030160006101000a81548173ffffffffffffffffffffffffffffffffffffffff021916908373ffffffffffffffffffffffffffffffffffffffff1602179055503373ffffffffffffffffffffffffffffffffffffffff167ffd7cfbd219ff1e7365436fb2930a026fa6704a1e0bb39ad104f0485c8c01124d8434604051808381526020018281526020019250505060405180910390a26001915050919050565b60008080549050905090565b60006002600083815260200190815260200160002060009054906101000a900460ff161515610b57576040517f08c379a00000000000000000000000000000000000000000000000000000000081526004018080602001828103825260148152602001807f496e76616c6964206974656d206e756d6265722e00000000000000000000000081525060200191505060405180910390fd5b610b5f6119c8565b6001600084815260200190815260200160002060c060405190810160405290816000820154815260200160018201548152602001600282015481526020016003820160009054906101000a900473ffffffffffffffffffffffffffffffffffffffff1673ffffffffffffffffffffffffffffffffffffffff1673ffffffffffffffffffffffffffffffffffffffff1681526020016003820160149054906101000a900460ff161515151581526020016003820160159054906101000a900460ff16151515158152505090508060a001511515610ca3576040517f08c379a00000000000000000000000000000000000000000000000000000000081526004018080602001828103825260138152602001807f4974656d206e6f7420636c61696d61626c652e0000000000000000000000000081525060200191505060405180910390fd5b806060015173ffffffffffffffffffffffffffffffffffffffff163373ffffffffffffffffffffffffffffffffffffffff16141515610d4a576040517f08c379a00000000000000000000000000000000000000000000000000000000081526004018080602001828103825260108152602001807f496e76616c6964206163636f756e742e0000000000000000000000000000000081525060200191505060405180910390fd5b610d598160400151600561185d565b34141515610dcf576040517f08c379a000000000000000000000000000000000000000000000000000000000815260040180806020018281038252600c8152602001807f496e76616c6964206665652e000000000000000000000000000000000000000081525060200191505060405180910390fd5b3373ffffffffffffffffffffffffffffffffffffffff167f3ed1528b0fdc7c5207c1bf935e34a667e13656b9ed165260c522be0bc544f3038434604051808381526020018281526020019250505060405180910390a2610e2e836118f0565b506001915050919050565b6000806000806000806002600088815260200190815260200160002060009054906101000a900460ff161515610ed7576040517f08c379a00000000000000000000000000000000000000000000000000000000081526004018080602001828103825260148152602001807f4974656d206e6f7420696e697469616c697a656400000000000000000000000081525060200191505060405180910390fd5b610edf6119c8565b6001600089815260200190815260200160002060c060405190810160405290816000820154815260200160018201548152602001600282015481526020016003820160009054906101000a900473ffffffffffffffffffffffffffffffffffffffff1673ffffffffffffffffffffffffffffffffffffffff1673ffffffffffffffffffffffffffffffffffffffff1681526020016003820160149054906101000a900460ff161515151581526020016003820160159054906101000a900460ff1615151515815250509050806000015181602001518260400151836060015184608001518560a001518292509650965096509650965096505091939550919395565b600081815481101515610ff057fe5b906000526020600020016000915090505481565b60026020528060005260406000206000915054906101000a900460ff1681565b6000600360009054906101000a900473ffffffffffffffffffffffffffffffffffffffff1673ffffffffffffffffffffffffffffffffffffffff163373ffffffffffffffffffffffffffffffffffffffff161415156110eb576040517f08c379a00000000000000000000000000000000000000000000000000000000081526004018080602001828103825260158152602001807f556e617574686f72697a6564206163636f756e742e000000000000000000000081525060200191505060405180910390fd5b6002600083815260200190815260200160002060009054906101000a900460ff161515611180576040517f08c379a00000000000000000000000000000000000000000000000000000000081526004018080602001828103825260148152602001807f496e76616c6964206974656d206e756d6265722e00000000000000000000000081525060200191505060405180910390fd5b6111886119c8565b6001600084815260200190815260200160002060c060405190810160405290816000820154815260200160018201548152602001600282015481526020016003820160009054906101000a900473ffffffffffffffffffffffffffffffffffffffff1673ffffffffffffffffffffffffffffffffffffffff1673ffffffffffffffffffffffffffffffffffffffff1681526020016003820160149054906101000a900460ff161515151581526020016003820160159054906101000a900460ff1615151515815250509050806080015115156112cc576040517f08c379a00000000000000000000000000000000000000000000000000000000081526004018080602001828103825260178152602001807f4974656d20616c72656164792061756374696f6e65642e00000000000000000081525060200191505060405180910390fd5b60006001600085815260200190815260200160002060030160146101000a81548160ff021916908315150217905550806000015181604001511015156113b657600180600085815260200190815260200160002060030160156101000a81548160ff021916908315150217905550806060015173ffffffffffffffffffffffffffffffffffffffff167f6157ca509b81430b20bc99861fb68498ad7c3a12cea8550d0dbf8e1739a703e084836020015184604001516001604051808581526020018481526020018381526020018215151515815260200194505050505060405180910390a2611487565b806060015173ffffffffffffffffffffffffffffffffffffffff166108fc82604001519081150290604051600060405180830381858888f19350505050158015611404573d6000803e3d6000fd5b50806060015173ffffffffffffffffffffffffffffffffffffffff167f6157ca509b81430b20bc99861fb68498ad7c3a12cea8550d0dbf8e1739a703e084836020015184604001516000604051808581526020018481526020018381526020018215151515815260200194505050505060405180910390a2611485836118f0565b505b6001915050919050565b60016020528060005260406000206000915090508060000154908060010154908060020154908060030160009054906101000a900473ffffffffffffffffffffffffffffffffffffffff16908060030160149054906101000a900460ff16908060030160159054906101000a900460ff16905086565b6000600360009054906101000a900473ffffffffffffffffffffffffffffffffffffffff1673ffffffffffffffffffffffffffffffffffffffff163373ffffffffffffffffffffffffffffffffffffffff161415156115ce576040517f08c379a00000000000000000000000000000000000000000000000000000000081526004018080602001828103825260148152602001807f556e617574686f72697a6564206163636f756e7400000000000000000000000081525060200191505060405180910390fd5b6002600084815260200190815260200160002060009054906101000a900460ff1615151561168a576040517f08c379a00000000000000000000000000000000000000000000000000000000081526004018080602001828103825260268152602001807f4974656d20756e646572206974656d206e756d62657220616c7265616479206581526020017f78697374732e000000000000000000000000000000000000000000000000000081525060400191505060405180910390fd5b6116926119c8565b60c0604051908101604052808481526020016000815260200160008152602001600073ffffffffffffffffffffffffffffffffffffffff168152602001600115158152602001600015158152509050806001600086815260200190815260200160002060008201518160000155602082015181600101556040820151816002015560608201518160030160006101000a81548173ffffffffffffffffffffffffffffffffffffffff021916908373ffffffffffffffffffffffffffffffffffffffff16021790555060808201518160030160146101000a81548160ff02191690831515021790555060a08201518160030160156101000a81548160ff02191690831515021790555090505060016002600086815260200190815260200160002060006101000a81548160ff02191690831515021790555060008490806001815401808255809150509060018203906000526020600020016000909192909190915055507f50bfe36855967d446b8ea65825360cacc53d0ec60543567ebfad26a51a2cfc46846040518082815260200191505060405180910390a1600191505092915050565b600360009054906101000a900473ffffffffffffffffffffffffffffffffffffffff1681565b600080821115156118d6576040517f08c379a000000000000000000000000000000000000000000000000000000000815260040180806020018281038252601a8152602001807f536166654d6174683a206469766973696f6e206279207a65726f00000000000081525060200191505060405180910390fd5b600082848115156118e357fe5b0490508091505092915050565b6000806002600084815260200190815260200160002060006101000a81548160ff02191690831515021790555060008090505b6000805490508110156119bd578260008081548110151561194057fe5b906000526020600020015414156119b057600060016000805490500381548110151561196857fe5b906000526020600020015460008081548110151561198257fe5b906000526020600020018190555060008054809190600190036119a59190611a19565b5060019150506119c3565b8080600101915050611923565b50600090505b919050565b60c060405190810160405280600081526020016000815260200160008152602001600073ffffffffffffffffffffffffffffffffffffffff1681526020016000151581526020016000151581525090565b815481835581811115611a4057818360005260206000209182019101611a3f9190611a45565b5b505050565b611a6791905b80821115611a63576000816000905550600101611a4b565b5090565b9056fea165627a7a7230582052e46f848cf7ddcc0431cdf532ab166119cc6e3a461d1c0900a08858dac84dd30029",
  "source": "pragma solidity ^0.5.0;\r\nimport \"openzeppelin-solidity/contracts/math/SafeMath.sol\";\r\nimport \"contracts/Auction.sol\";\r\n\r\ncontract EnglishAuction is Auction {\r\n  function endAuction(uint _itemNo) public returns (bool) {\r\n    require(msg.sender == admin, \"Unauthorized account.\");\r\n    require(initialized[_itemNo], \"Invalid item number.\");\r\n    Item memory _item = Auction.items[_itemNo];\r\n    require(_item.biddable, \"Item already auctioned.\");\r\n    Auction.items[_itemNo].biddable = false;\r\n    if (_item.highBid >= _item.reservePrice) {\r\n      Auction.items[_itemNo].claimable = true;\r\n      emit Sell(_itemNo, _item.bids, _item.highBid, _item.bidder, true);\r\n    }\r\n    else {\r\n      _item.bidder.transfer(_item.highBid);\r\n      emit Sell(_itemNo, _item.bids, _item.highBid, _item.bidder, false);\r\n      deleteItem(_itemNo);\r\n    }\r\n    return true;\r\n  }\r\n}\r\n",
  "sourcePath": "D:/Vince/Documents/GitHub/auction-sol/contracts/EnglishAuction.sol",
  "compiler": {
    "name": "solc",
    "version": "0.5.1+commit.c8a2cb62.Emscripten.clang"
  },
  "schemaVersion": "3.0.10",
  "updatedAt": "2019-07-15T14:33:17.026Z",
  "devdoc": {
    "methods": {}
  },
  "userdoc": {
    "methods": {}
  }
}